{
  "_format": "hh-sol-artifact-1",
  "contractName": "WavePortal",
  "sourceName": "contracts/WavePortal.sol",
  "abi": [
    {
      "inputs": [],
      "stateMutability": "nonpayable",
      "type": "constructor"
    },
    {
      "inputs": [],
      "name": "addWave",
      "outputs": [],
      "stateMutability": "nonpayable",
      "type": "function"
    },
    {
      "inputs": [],
      "name": "getTotalWaves",
      "outputs": [
        {
          "internalType": "uint256",
          "name": "",
          "type": "uint256"
        }
      ],
      "stateMutability": "view",
      "type": "function"
    },
    {
      "inputs": [],
      "name": "subtractWave",
      "outputs": [],
      "stateMutability": "nonpayable",
      "type": "function"
    }
  ],
  "bytecode": "0x608060405234801561001057600080fd5b5061003c60405180606001604052806025815260200161081f6025913961008260201b6101921760201c565b33600160006101000a81548173ffffffffffffffffffffffffffffffffffffffff021916908373ffffffffffffffffffffffffffffffffffffffff160217905550610205565b61011e816040516024016100969190610183565b6040516020818303038152906040527f41304fac000000000000000000000000000000000000000000000000000000007bffffffffffffffffffffffffffffffffffffffffffffffffffffffff19166020820180517bffffffffffffffffffffffffffffffffffffffffffffffffffffffff838183161783525050505061012160201b60201c565b50565b60008151905060006a636f6e736f6c652e6c6f679050602083016000808483855afa5050505050565b6000610155826101a5565b61015f81856101b0565b935061016f8185602086016101c1565b610178816101f4565b840191505092915050565b6000602082019050818103600083015261019d818461014a565b905092915050565b600081519050919050565b600082825260208201905092915050565b60005b838110156101df5780820151818401526020810190506101c4565b838111156101ee576000848401525b50505050565b6000601f19601f8301169050919050565b61060b806102146000396000f3fe608060405234801561001057600080fd5b50600436106100415760003560e01c80633184b67d146100465780634c35f58f146100505780639a2cdc081461005a575b600080fd5b61004e610078565b005b6100586100ed565b005b610062610147565b60405161006f9190610465565b60405180910390f35b600160009054906101000a900473ffffffffffffffffffffffffffffffffffffffff1673ffffffffffffffffffffffffffffffffffffffff163373ffffffffffffffffffffffffffffffffffffffff16146100d257600080fd5b60016000808282546100e491906104f2565b92505081905550565b60016000808282546100ff919061049c565b925050819055506101456040518060400160405280600d81526020017f25732068617320776176657321000000000000000000000000000000000000008152503361022b565b565b600061018a6040518060400160405280601781526020017f5765206861766520256420746f74616c207761766573210000000000000000008152506000546102c7565b600054905090565b610228816040516024016101a691906103e3565b6040516020818303038152906040527f41304fac000000000000000000000000000000000000000000000000000000007bffffffffffffffffffffffffffffffffffffffffffffffffffffffff19166020820180517bffffffffffffffffffffffffffffffffffffffffffffffffffffffff8381831617835250505050610363565b50565b6102c38282604051602401610241929190610405565b6040516020818303038152906040527f319af333000000000000000000000000000000000000000000000000000000007bffffffffffffffffffffffffffffffffffffffffffffffffffffffff19166020820180517bffffffffffffffffffffffffffffffffffffffffffffffffffffffff8381831617835250505050610363565b5050565b61035f82826040516024016102dd929190610435565b6040516020818303038152906040527f9710a9d0000000000000000000000000000000000000000000000000000000007bffffffffffffffffffffffffffffffffffffffffffffffffffffffff19166020820180517bffffffffffffffffffffffffffffffffffffffffffffffffffffffff8381831617835250505050610363565b5050565b60008151905060006a636f6e736f6c652e6c6f679050602083016000808483855afa5050505050565b61039581610526565b82525050565b60006103a682610480565b6103b0818561048b565b93506103c0818560208601610562565b6103c9816105c4565b840191505092915050565b6103dd81610558565b82525050565b600060208201905081810360008301526103fd818461039b565b905092915050565b6000604082019050818103600083015261041f818561039b565b905061042e602083018461038c565b9392505050565b6000604082019050818103600083015261044f818561039b565b905061045e60208301846103d4565b9392505050565b600060208201905061047a60008301846103d4565b92915050565b600081519050919050565b600082825260208201905092915050565b60006104a782610558565b91506104b283610558565b9250827fffffffffffffffffffffffffffffffffffffffffffffffffffffffffffffffff038211156104e7576104e6610595565b5b828201905092915050565b60006104fd82610558565b915061050883610558565b92508282101561051b5761051a610595565b5b828203905092915050565b600061053182610538565b9050919050565b600073ffffffffffffffffffffffffffffffffffffffff82169050919050565b6000819050919050565b60005b83811015610580578082015181840152602081019050610565565b8381111561058f576000848401525b50505050565b7f4e487b7100000000000000000000000000000000000000000000000000000000600052601160045260246000fd5b6000601f19601f830116905091905056fea264697066735822122038078e7bbb2f0f9e0776d24eb9f052d9e47a66c46d2e4eb187de14bed2f9dfdd64736f6c63430008040033596f20796f2c204927616d206120636f6e747261637420616e64204920616d20736d617274",
  "linkReferences": {},
  "deployedLinkReferences": {}
}